:020000040800F2
:1000000000000120C5020008CB020008CF02000852
:1000100041030008450300088D03000800000000AC
:10002000000000000000000000000000D5030008F0
:10003000D903000800000000DD0300084D16000889
:10004000F1030008F1030008F1030008F1030008C0
:10005000F1030008F1030008F1030008F1030008B0
:10006000F1030008F1030008F1030008F1030008A0
:10007000F1030008F1030008F1030008F103000890
:10008000F1030008F1030008F1030008000000007C
:10009000000000000000000000000000F103000864
:1000A000F1030008F1030008F1030008F103000860
:1000B000F1030008F1030008F1030008F103000850
:1000C000F1030008F1030008F1030008F103000840
:1000D000F10300089D190008AD1900080000000098
:1000E000F1030008F1030008F1030008000000001C
:1000F000000000000000000000000000F103000804
:1001000000000000F1030008F1030008F1030008FB
:1001100000000000000000000000000000000000DF
:10012000F1030008F1030008F1030008F1030008DF
:10013000F1030008000000000000000000000000C3
:10014000000000000000000000000000F1030008B3
:10015000F1030008F1030008F1030008BD190008CD
:10016000F1030008F1030008000000000000000097
:10017000000000000000000000000000000000007F
:1001800000000000F1030008000000000000000073
:10019000F103000800B583B000F040FE384B394A47
:1001A0001360394A1360394900E02146384B9942BF
:1001B0000BD20A684B6801F10C0488689842F4D9A4
:1001C0001168196004330432F8E72E4B1A68314B7A
:1001D0009A4200D0FEE72C4B1A682F4B9A42F9D175
:1001E000274B2E4A13602E4A13602E4B05E0002049
:1001F000106004329342FAD80B462B4A934204D241
:10020000194651F8082B5B68F4E7244B1B6813B9B7
:10021000234B1B6803B1FEE701F024FC694601A8EB
:1002200000F08EFD214C224BE41AA4100025AC42B4
:1002300014DC204C204BE41AA4100025AC4213DC43
:100240000099019801F036FF05461C4C1C4BE41A3E
:10025000A410002C0EDC284600F044FD144B53F88B
:10026000253098470135E2E7134B53F8253098477E
:100270000135E3E7013C124B53F824309847E8E797
:10028000BABADECA0000002074000020F40300089F
:100290000C04000878563412325476987800002006
:1002A0008C0100200C0400081C0400081C04000839
:1002B0001C0400081C0400081C0400081C0400089E
:1002C0001C04000808B5FFF765FF00BEFEE71EF03E
:1002D000040F0CBFEFF30880EFF309807146414A29
:1002E00010472DE9F04182B004468846124B5E6B00
:1002F0009F6B9D6A1B6B13F0020F03D00E4BDB6AE2
:10030000002B0CDB0D4800F02DFDCDF800803B46A6
:1003100032462946204600F08DFD00BEFEE74BF632
:10032000AB6100F001FE0028ECD0034B4FF000421F
:10033000DA6202B0BDE8F08100ED00E0C82D0008EF
:1003400000BEFEE71EF0040F0CBFEFF30880EFF3D2
:1003500009807146244A10472DE9F04182B00446D5
:100360008846084B5E6B9F6B9D6A074800F0FAFC5D
:10037000CDF800803B4632462946204600F05AFD23
:1003800000BEFEE700ED00E0D82D00081EF0040FCF
:100390000CBFEFF30880EFF309807146134A104752
:1003A0002DE9F04182B004468846084B5E6B9F6B96
:1003B0009D6A074800F0D6FCCDF800803B463246E7
:1003C0002946204600F036FD00BEFEE700ED00E0C5
:1003D000E42D000800BEFEE700BEFEE700BEFEE71B
:1003E00070470000E302000859030008A103000859
:0403F00000BEFEE766
:1003F400382E00080000002078000020382E000865
:10040400000000100000001078000020900100207F
:080414000000001000000010C0
:1004200010B50446074B1868074BA3FB0030800942
:1004300000F090F8002221464FF0FF3000F044F821
:10044000002010BD0C000020D34D621008B50B4BEE
:100450001A6842F400721A601A6842F480621A60E4
:100460001A6842F480721A60032000F00FF80F201F
:10047000FFF7D6FF01F03CFF002008BD003C024022
:10048000014B1868704700BF6801002010B5044692
:10049000C31E042B0FD80A4AD36823F4E0631B045D
:1004A0001B0C240204F4E064234343F0BF6343F4D1
:1004B0000033D36010BDA421024800F049FCEAE7F4
:1004C00000ED00E0F82B000870B505460C46164616
:1004D0000F2A25D80F2C28D81B4BDB68C3F3022327
:1004E000C3F10702042A28BF0422191D062921D9B5
:1004F000033B4FF0FF3101FA02F224EA02049C4070
:1005000001FA03F326EA03063443002D14DB240129
:10051000E4B205F1604505F5614585F8004370BD1D
:10052000BC210A4800F014FCD4E7BD21074800F0C4
:100530000FFCD1E70023DCE705F00F052401E4B24E
:10054000034B5C55EBE700BF00ED00E0F82B000823
:1005500014ED00E00138B0F1807F0AD2064B5860FC
:10056000064AF02182F823100020986007221A60C2
:1005700070470120704700BF10E000E000ED00E090
:1005800010B50446042800D038B9042C0BD0094A11
:10059000136823F00403136010BD40F2B311064842
:1005A00000F0D6FBF1E7034A136843F0040313603D
:1005B000F2E700BF10E000E0F82B000830B583B090
:1005C000044603680F2B29D8236813F0010F3DD090
:1005D0006368012B01D9052B25D1A34B9B6803F040
:1005E0000C03042B29D0A04B9B6803F00C03082BB1
:1005F0001ED022799D4B1A706368002B50D0FFF7F4
:100600003FFF0546984B1B6813F4003F1ED1FFF7D0
:1006100037FF401B6428F5D90320E3E1F521944816
:1006200000F096FBD0E7FA21914800F091FBD4E767
:100630008D4B5B6813F4800FDBD08B4B1B6813F47E
:10064000003F03D06368002B00F0C981236813F0DA
:10065000020F5DD0E368012B31D823691F2B34D8FA
:10066000814B9B6813F00C0F3AD07F4B9B6803F0D3
:100670000C03082B2FD0E368002B74D07D4B012294
:100680001A60FFF7FDFE0546774B1B6813F0020F5B
:100690005AD1FFF7F5FE401B0228F5D90320A1E14E
:1006A000FFF7EEFE0546704B1B6813F4003FCDD0FC
:1006B000FFF7E6FE401B6428F5D9032092E14FF4D2
:1006C00096716B4800F044FBC7E740F22D11684873
:1006D00000F03EFBC4E7644B5B6813F4800FCAD1A3
:1006E000614B1B6813F0020F04D0E368012B01D0AB
:1006F000012077E15C48036823F0F8032169F822C0
:1007000092FAA2F2B2FA82F201FA02F21343036001
:10071000236813F0080F50D06369012B35D8636943
:10072000002B38D0544B01221A60FFF7A9FE054672
:100730004D4B5B6F13F0020F3FD1FFF7A1FE401B43
:100740000228F5D903204DE14748036823F0F80358
:100750002169F82292FAA2F2B2FA82F201FA02F2C6
:1007600013430360D4E7434B00221A60FFF788FE6F
:1007700005463D4B1B6813F0020FC9D0FFF780FE02
:10078000401B0228F5D903202CE140F26D113848B6
:1007900000F0DEFAC3E7384B00221A60FFF770FE64
:1007A0000546314B5B6F13F0020F06D0FFF768FE72
:1007B000401B0228F5D9032014E1236813F0040F2D
:1007C00060D0A368012B01D9052B1FD10023019311
:1007D000254B1A6C42F080521A641B6C03F0805354
:1007E0000193019B254A136843F480731360FFF75C
:1007F00047FE0546214B1B6813F4807F0CD1FFF7A1
:100800003FFE401B0228F5D90320EBE040F2971190
:10081000174800F09DFAD9E7227A194B1A70A3689D
:1008200083B1FFF72DFE05460F4B1B6F13F0020F30
:1008300028D1FFF725FE401B41F288339842F3D9B7
:100840000320CFE0FFF71CFE0546074B1B6F13F09C
:10085000020F17D0FFF714FE401B41F28833984275
:10086000F3D90320BEE000BF003802400238024046
:100870003C2C000800004742800E474200700040B8
:1008800070380240A369022B39D8A369002B00F00D
:10089000A880564A926802F00C02082A00F0A48050
:1008A000022B40F08880E36913B1B3F5800F2CD19F
:1008B000236A3F2B2FD8636A323BB3F5BF7F30D812
:1008C000A36A022B05D0042B03D0062B01D0082BE2
:1008D0002DD1E36A043B0B2B2FD8454B00221A6025
:1008E000FFF7CEFD0546414B1B6813F0007F2AD071
:1008F000FFF7C6FD401B0228F5D9032072E04FF434
:10090000E6713C4800F024FABFE740F2D5113948BF
:1009100000F01EFACCE74FF4EB71364800F018FAFD
:10092000C9E740F2D711334800F012FAC8E74FF494
:10093000EC71304800F00CFACBE740F2D9112D48A9
:1009400000F006FAC9E7E369226A1343616A47F6D1
:10095000C07292FAA2F2B2FA82F201FA02F21343E0
:10096000A26A5208013A4FF4403191FAA1F1B1FA6A
:1009700081F18A401343E16A4FF0706292FAA2F269
:10098000B2FA82F201FA02F21343184A5360184B8A
:1009900001221A60FFF774FD0446144B1B6813F024
:1009A000007F06D1FFF76CFD001B0228F5D903205C
:1009B00018E0002016E00E4B00221A60FFF760FDE1
:1009C00004460A4B1B6813F0007F06D0FFF758FD62
:1009D000001B0228F5D9032004E0002002E00120DA
:1009E00000E0002003B030BD0120FBE700380240EA
:1009F000600047423C2C00081F4B9B6803F00C032F
:100A0000082B36D11C4B586800F03F005B6813F48C
:100A1000800F1ED0194AB2FBF0F2174B586847F608
:100A2000C073184093FAA3F3B3FA83F3D84000FBE2
:100A300002F0114B5B6803F440334FF4403292FAFA
:100A4000A2F2B2FA82F2D34001335B00B0FBF3F0C2
:100A500070470A4AB2FBF0F2074B586847F6C0737A
:100A6000184093FAA3F3B3FA83F3D84000FB02F0E3
:100A7000DFE70248704700BF003802400024F4005E
:100A800070B504460D460368013B0E2B11D8072DA7
:100A900015D88C4B1B6803F00F03AB4215D2EBB299
:100AA000884A1370136803F00F03AB420DD0012086
:100AB00070BD40F23721844800F04AF9E7E74FF46F
:100AC0000E71814800F044F9E3E7236813F0020F48
:100AD00018D0A3687BB1802B0DD0902B0BD0A02B0E
:100AE00009D0B02B07D0C02B05D0D02B03D0E02BE2
:100AF00001D0F02B37D1754A936823F0F003A16839
:100B00000B439360236813F0010F73D06368032BCA
:100B10002FD86368012B32D09A1E012A36D96B4A2E
:100B2000126812F0020F00F0CA8068498A6822F049
:100B3000030213438B60FFF7A3FC06466368012B97
:100B40002BD0022B38D0032B45D0604B9B6813F081
:100B50000C0F4FD0FFF794FC801B41F28833984272
:100B6000F3D90320A4E740F24F21574800F0F0F8F2
:100B7000C1E740F25621544800F0EAF8C9E7534A69
:100B8000126812F4003FD0D1012091E74F4A126859
:100B900012F0007FC9D101208AE74C4B9B6803F01B
:100BA0000C03042B26D0FFF76BFC801B41F288332B
:100BB0009842F2D903207BE7444B9B6803F00C0377
:100BC000082B17D0FFF75CFC801B41F2883398425A
:100BD000F2D903206CE73D4B9B6803F00C030C2B10
:100BE00008D0FFF74DFC801B41F288339842F2D9C0
:100BF00003205DE7334B1B6803F00F03AB4209D9B9
:100C0000EAB2304B1A701B6803F00F03AB4201D0FD
:100C100001204DE7236813F0040F14D0E3685BB1A3
:100C2000B3F5805F08D0B3F5A05F05D0B3F5C05F22
:100C300002D0B3F5E05F36D1244A936823F4E05341
:100C4000E1680B439360236813F0080F15D0236904
:100C50005BB1B3F5805F08D0B3F5A05F05D0B3F505
:100C6000C05F02D0B3F5E05F23D1184A936823F444
:100C70006043216943EAC1039360FFF7BDFE134B54
:100C80009B6803F0F003F02292FAA2F2B2FA82F229
:100C9000D3400F4AD35CD8400E4B18600F20FFF7AB
:100CA000BFFB002004E74FF42D71074800F050F817
:100CB000C2E740F2BB21044800F04AF8D5E7012022
:100CC000F6E600BF003C02403C2C00080038024021
:100CD0002C2C00080C000020014B1868704700BF46
:100CE0000C000020FEE7000008B5034800F052F8B1
:100CF0000120FFF7F7FF00BF6C2C000808B5034682
:100D00000C4A12685AB10B4A1068033323F00303EC
:100D10000344094A934206D8064A136008BD054AAF
:100D200006491160EFE701F0E5FA0C2303604FF08C
:100D3000FF30F3E77C00002000FC00209001002041
:100D400001230360014B0B60704700BF04000020CB
:100D500008B50A460146024800F004F8FFF7C4FF50
:100D6000802C00080FB400B583B004AB53F8042BFB
:100D700001938021064801F0F7FA002803DD0146BF
:100D8000034800F047F803B05DF804EB04B0704787
:100D90008400002010B5044601F0B2FA0146204656
:100DA00000F038F80121024800F034F810BD00BF0F
:100DB000442D00082DE9F04385B004460F46435604
:100DC0000BB10E461EE0042528462146ABBE044664
:100DD000384605B0BDE8F08314F9011B04AA1A4493
:100DE00002F8101C0133AB42F6D304AA13440022CC
:100DF00003F8102C4FF00408E94640464946ABBEC4
:100E00008046761B002EE3D03546102E28BF1025D5
:100E10000023E8E708B5FFF7CDFF08BD08B500F0EF
:100E200093F8024A024B9A6008BD00BF0000000818
:100E300000ED00E0F8B504460D4617461E4627486B
:100E4000FFF790FF21682648FFF78CFF616825486F
:100E5000FFF788FFA1682448FFF784FFE168234873
:100E6000FFF780FF21692248FFF77CFF6169214875
:100E7000FFF778FFA1692048FFF774FFE1691F4879
:100E8000FFF770FF1E48FFF76DFF29461D48FFF76B
:100E900069FF1D4CE16A1D48FFF764FF216B1C4888
:100EA000FFF760FFE16B1B48FFF75CFF15F0800F59
:100EB0000AD115F4004F0CD11748FFF753FF0699DC
:100EC0001648FFF74FFFF8BD39461548FFF74AFFB0
:100ED000EFE731461348FFF745FFEDE7AC2C00087C
:100EE000BC2C0008CC2C0008DC2C0008EC2C0008E2
:100EF000FC2C00080C2D00081C2D00082C2D0008CF
:100F00003C2D0008482D000800ED00E0582D000899
:100F1000682D0008782D0008A82D0008B02D0008C5
:100F2000882D0008982D000883691A888A4201D00C
:100F3000002070470268033A012A03D80233836114
:100F400001207047002070470C4B1A6842F00102E4
:100F50001A60002199601A6822F0847222F48032AB
:100F60001A60074A5A601A6822F480221A60D9600F
:100F7000044B4FF000629A60704700BF0038024097
:100F80001030002400ED00E0224B9B6803F00C03BE
:100F9000042B14D0082B16D01BB11F4B1F4A1A600C
:100FA00002E01D4B1D4A1A601A4B9B68C3F30313E2
:100FB0001B4AD15C184A1368CB4013607047164B2C
:100FC000164A1A60F0E7134B5A685B6803F03F0358
:100FD00012F4800F13D0114AB2FBF3F20D4B5B6891
:100FE000C3F3881303FB02F30A4A5268C2F30142B7
:100FF00001325200B3FBF2F3074A1360D4E7074A09
:10100000B2FBF3F2034B5B68C3F3881303FB02F3F9
:10101000EAE700BF003802400C0000200024F40082
:10102000F42D0008094B5A6822F080725A605A6801
:1010300022F000725A6006490A6842F400020A600F
:101040009A6842F001029A60704700BF0020014098
:1010500004230140084B0022DA62D8629A6842F009
:1010600080429A60044B1B6813F0020FFAD0024BC7
:10107000186C80B2704700BF0020014008B5012203
:1010800000F040F808BD08B5012200F079F808BD6D
:1010900008B5002200F074F808BD08B5012200F080
:1010A00031F808BD08B5002200F06AF808BD08B59F
:1010B000012200F065F808BD08B5FFF7CBFF6423F7
:1010C00003FB00F0A0F50530A0F59A704008024B34
:1010D000A3FB0030800A08BDD12454C008B5FFF737
:1010E000A1FF08BD08B5FFF7B5FF41F2883303FB48
:1010F00000F0C0F30F30024BA3FB0030C00808BD66
:10110000CDCCCCCC05282DD8DFE800F0030A11188F
:101110001F261548036849008A401A430260704739
:101120001248036849008A401A4302607047104819
:10113000036849008A401A43026070470D480368FB
:1011400049008A401A43026070470B48036849000F
:101150008A401A43026070470848036849008A4081
:101160001A430260704700BF0000024000040240C2
:1011700000080240000C024000100240001C024027
:10118000012A06D0052870D8DFE800F03A434C5514
:101190005E67052869D8DFE800F0030B131B232BDB
:1011A00032484369012202FA01F119434161704753
:1011B0002F484369012202FA01F119434161704746
:1011C0002C480368012202FA01F1194301607047BB
:1011D00029484369012202FA01F11943416170472C
:1011E00026484369012202FA01F11943416170471F
:1011F00023484369012202FA01F119434161704712
:101200001A484369012202FA01F123EA010141610E
:10121000704717484369012202FA01F123EA0101EC
:101220004161704717484369012202FA01F123EA3C
:1012300001014161704710484369012202FA01F13E
:1012400023EA0101416170470C484369012202FA17
:1012500001F123EA01014161704709484369012214
:1012600002FA01F123EA01014161704700000240E6
:101270000004024014080240000C0240001002402A
:10128000001C024000080240072936D8052879D8FA
:10129000DFE800F0030B131B232B3B48036A890094
:1012A00002FA01F11943016270473848036A890064
:1012B00002FA01F11943016270473548036A890057
:1012C00002FA01F11943016270473248036A89004A
:1012D00002FA01F11943016270472F48036A89003D
:1012E00002FA01F11943016270472C48036A890030
:1012F00002FA01F119430162704710B405280DD8B4
:10130000DFE800F0030E18222C361F4C606A01F053
:1013100007018B0002FA03F10143616210BC7047C0
:101320001A4C606A01F007039B0002FA03F10143C3
:101330006162F3E7164C606A01F007039B0002FA52
:1013400003F101436162E9E7124C606A01F00703AF
:101350009B0002FA03F101436162DFE70E4C606A11
:1013600001F007039B0002FA03F101436162D5E734
:101370000A48436A01F00701890002FA01F11943A2
:101380004162CBE7704700BF00000240000402400A
:1013900000080240000C024000100240001C024005
:1013A000032822D8DFE800F0020A121A0F48036867
:1013B000012202FA01F11943016070470C480368E9
:1013C000012202FA01F119430160704709480368DC
:1013D000012202FA01F119430160704706480368CF
:1013E000012202FA01F119430160704730380240CE
:1013F00034380240403802404438024001282DD0A1
:1014000010B1022840D0704711B1012913D07047A4
:101410004D4B1A6842F480321A601A6822F4802216
:101420001A6008331A6842F001021A601A6822F042
:1014300002021A607047444B1A6842F480321A6004
:101440001A6842F480221A6008331A6842F00102D6
:101450001A601A6822F002021A6070473A4B0022A2
:101460001A601A6842F001021A60374B1B6813F0C9
:10147000020FFAD0354B1A6822F001021A601A687E
:1014800022F002021A60704700232F490B600431DA
:101490000B6012B1012A3FD070472D4B1A6842F4FD
:1014A00080321A601A6822F400321A601A6842F414
:1014B00040521A601A6842F010021A6004331A6827
:1014C0001A601A6842F480521A601A681A601E4A3A
:1014D000136843F4803313601B4B1B6813F4003F05
:1014E000FAD0194A136843F080731360164B1B68D7
:1014F00013F0007FFAD0164A136843F48003136098
:10150000124B1A6822F001021A601A6842F00202B5
:101510001A601A681A6070470B4B1A6842F0010291
:101520001A601A6842F080721A60094A136823F43C
:1015300080031360054B1A6822F001021A601A68D2
:1015400042F002021A607047003802400838024038
:101550000438024010B4440900F01F00054951F856
:101560002430012202FA00F0184341F8240010BC94
:10157000704700BF00E100E038B500240BE0114BDC
:101580005B5D33B99047104B03EBC5031A790D4BE4
:101590005A550134E4B2082C12D825460A4B53F8A8
:1015A0003420002AF5D003EBC4039B79012BF0D142
:1015B000044B1B5D002BE2D0013B02490B55DEE7DB
:1015C00038BD00BF7001002004010020082A11D896
:1015D00010B4094C54F832400CB110BC7047064CA2
:1015E00044F8320004EBC200017104498B5401231A
:1015F0008371F2E7704700BF0401002070010020F2
:1016000008B50249024800F02BF808BD791500081A
:1016100080380100044B1A6842F004021A601A680C
:1016200042F002021A60704710E000E0064B1A68B0
:1016300022F001021A600138586000229A601A688C
:1016400042F001021A60704710E000E008B5034B59
:101650001B6813B1014B1B68984708BD4C01002063
:1016600008B5024B1960FFF7E1FF08BD4C010020EF
:1016700010B501283DD010B1032874D010BD574BD0
:101680001960574BDA6842F40052DA60DA68088869
:101690000243DA60DA68C8880243DA60DA684888A8
:1016A0000243DA601A69888802431A618C68200153
:1016B0004C4AB2FBF0F0A40002F1B75202F55832E6
:1016C000B2FBF4F4642202FB10421201464CA4FB6C
:1016D0000242C2F3431242EA00129A608B89002B45
:1016E000CCD03F49CA681343CB602520FFF732FFB7
:1016F000C4E73E4B19603E4BDA6842F40052DA60B0
:10170000DA6808880243DA60DA68C8880243DA6077
:10171000DA6848880243DA601A69888802431A61E5
:101720008C6820012F4AB2FBF0F0A40002F1B752FE
:1017300002F55832B2FBF4F4642202FB10421201AB
:10174000294CA4FB0242C2F3431242EA00129A60FF
:101750008B89002B92D02649CA681343CB60262080
:10176000FFF7F8FE8AE7234B1960234BDA6842F44F
:101770000052DA60DA6808880243DA60DA68C888FA
:101780000243DA60DA6848880243DA601A698888B6
:1017900002431A618C682001124AB2FBF0F0A400E7
:1017A00002F1B75202F55832B2FBF4F4642202FBA4
:1017B000104212010C4CA4FB0242C2F3431242EA53
:1017C00000129A608B89002B3FF458AF0A49CA680F
:1017D0001343CB604720FFF7BDFE4FE750010020C9
:1017E000001001400024F4001F85EB51540100203B
:1017F00000440040580100200014014001281BD083
:1018000010B103282DD0704722B9204B1B6813F06C
:10181000800FFAD01E4B1B68DB88B3F5805F03D0C6
:10182000C9B21A4B59607047C1F3080103F18043F4
:1018300003F580335960704722B9164B1B6813F0CB
:10184000800FFAD0144B1B68DB88B3F5805F03D0A0
:10185000C9B2104B59607047C1F308010D4B596074
:10186000704722B90D4B1B6813F0800FFAD00C4B58
:101870001B68DB88B3F5805F03D0C9B2074B5960A2
:101880007047C1F30801054B5960704700100140D3
:101890005001002000440040540100200014014089
:1018A0005801002001282AD010B1032848D07047E1
:1018B00021B9344B1B6813F0200FFAD0324B1B6850
:1018C000DA88B2F5805F08D05B889BB903F180436A
:1018D00003F588335868C0B270475B8833B903F1A9
:1018E000804303F588335868C0B27047254B586869
:1018F000C0B27047234B586800F07F00704721B991
:10190000224B1B6813F0200FFAD0214B1B68DA889A
:10191000B2F5805F05D05B886BB91C4B5868C0B2CC
:1019200070475B881BB9194B5868C0B27047174B9A
:101930005868C0B27047154B586800F07F00704778
:1019400021B9144B1B6813F0200FFAD0124B1B68FF
:10195000DA88B2F5805F05D05B886BB90D4B5868AB
:10196000C0B270475B881BB90A4B5868C0B2704759
:10197000084B5868C0B27047064B586800F07F00AB
:10198000704700BF0010014050010020004400409B
:1019900054010020001401405801002008B5024BFA
:1019A0001B681B69984708BD5001002008B5024B11
:1019B0001B681B69984708BD5401002008B5024BFD
:1019C0001B681B69984708BD5801002070B594B08A
:1019D00000240194204B1A6C42F080521A641B6C54
:1019E00003F080530193019B02941C4B1A6842F44C
:1019F00040421A601B6803F440430293029B012398
:101A0000089309934FF480030F93102310934FF41E
:101A1000A8731193042612960723139302250E959B
:101A200008A8FEF7CBFD0F230393049505944FF40C
:101A3000805306930794294603A8FFF721F8FFF780
:101A40004BF9074BA3FB00308009FEF783FD3046BE
:101A5000FEF796FD14B070BD0038024000700040E3
:101A6000D34D621008B5FEF7F1FCFFF7AFFFFFF7AB
:101A70008BFA08BD104A13780133DBB213703B2B8D
:101A800006D9134600221A700C4A137801331370DA
:101A90000A4B1B783B2B06D9084B00221A70084AC8
:101AA000137801331370064B1B78172B02D9044BA4
:101AB00000221A70704700BF5E0100205D01002007
:101AC0005C01002008B5474B1B78322B00D008BDC5
:101AD000454B1B78462B14D04C2B54D0442BF6D1BD
:101AE000424B1B78012B26D00023414A1370414AF8
:101AF000137000233B4A13703B4A13703E4A137025
:101B0000E5E73D4B1B784F2B09D0462B0DD000232A
:101B1000344A1370344A1370374A1370D7E70122DE
:101B20000E210020FFF72CFBF1E700220E211046CA
:101B3000FFF726FBEBE7304B1B784F2B12D0462BE1
:101B4000D7D1002209211046FFF71AFB01220A21F2
:101B50000020FFF715FB264B01221A70254B0022AF
:101B60001A70C6E7012209210020FFF709FB0022B5
:101B70000A211046FFF704FB1D4B00221A701D4B73
:101B800001221A70B5E7194B1B78012B0CD00023EA
:101B90001A4A13701A4A13700023124A1370124A19
:101BA0001370154A137092E7134B1B784F2B0DD00F
:101BB000462BF1D100220F211046FFF7E1FA0F4B1F
:101BC00001221A700E4B00221A70E5E701220F2144
:101BD0000020FFF7D5FA094B00221A70084B0122AA
:101BE0001A70D9E7840100207C0100208A010020BE
:101BF0007A01002083010020880100207D0100205F
:101C00008001002008B5164B1B78332B00D008BD8F
:101C1000144B1B78442BFAD1134B1B784F2B09D054
:101C2000462B12D000230E4A13700E4A13700E4A30
:101C30001370ECE7012209211046FFF7A1FA0022F8
:101C40000A210120FFF79CFAECE70022092101207C
:101C5000FFF796FA01220A211046FFF791FAE1E711
:101C6000840100207C0100208801002008B5214B60
:101C70001B78342B00D008BD1F4B1B78442BFAD1A6
:101C80001E4B1B78012B0CD000231D4A13701D4ADC
:101C900013700023174A1370174A13701A4A1370EF
:101CA000E9E7194B1B784F2B12D0462BF1D10022BC
:101CB00005210120FFF764FA012206211046FFF7F3
:101CC0005FFA0F4B01221A700E4B00221A70E0E7E8
:101CD000012205211046FFF753FA002206210120B8
:101CE000FFF74EFA064B00221A70064B01221A70BB
:101CF000CFE700BF840100207C0100208A01002082
:101D0000790100207F0100208801002008B504200F
:101D1000FFF7E8F9C0B2274B187019281ED9264BD7
:101D20001B785BB1254B1B7873B1224B1B781E2BA4
:101D30000FD907210020FFF7A6F908BD01220221D3
:101D40000020FFF71DFAEDE706210020FFF7AFF9AD
:101D5000EBE707210020FFF79BF9EEE713281ED8D9
:101D6000174B1B785BB1174B1B7873B1114B1B786A
:101D7000092B0FD807210020FFF785F9DDE70022A6
:101D800002211046FFF7FCF9EDE706210020FFF7DE
:101D900089F9EBE707210020FFF77AF9CDE7002268
:101DA00002211046FFF7ECF906210020FFF77FF92A
:101DB000C3E700BF810100207E01002086010020D2
:101DC000890100208701002008B5604B1B78312B6A
:101DD00000D008BD5E4B1B78443B102BF9D801A204
:101DE00052F823F0871E0008D31D0008291E0008A2
:101DF000D31D0008F31E0008D31D0008D31D0008E2
:101E0000D31D0008D31D0008D31D0008D31D0008F2
:101E1000D31D0008D31D0008D31D0008D31D0008E2
:101E2000D31D0008CF1E00084A4B1B78012B0CD095
:101E30000023494A1370494A13700023434A137020
:101E4000434A1370464A1370C3E7454B1B784F2B28
:101E50000DD0462BF1D1002202211046FFF790F958
:101E60003D4B01221A703D4B00221A70E5E701221A
:101E700002210020FFF784F9374B00221A70374BFC
:101E800001221A70D9E7364B1B784F2B09D0462B0D
:101E900012D000232D4A13702D4A1370304A13704C
:101EA00097E7012200210846FFF76AF90022012185
:101EB0001046FFF765F9ECE7002211461046FFF7E0
:101EC0005FF9012211460020FFF75AF9E1E70420EB
:101ED000FFF708F9C1B2234B197000220320FFF766
:101EE0008DFC0023194A1370194A13701C4A137091
:101EF0006FE7184B1B78012B0CD000231A4A137084
:101F00001A4A13700023114A1370114A1370144AAD
:101F100013705EE7124B1B784F2B0CD0462BF1D180
:101F200006210020FFF7C3F80F4B00221A700F4B59
:101F300001221A70E6E706210020FFF7B3F80A4BEA
:101F400001221A70094B00221A70DBE7840100207D
:101F50007C0100208A0100207E01002089010020F0
:101F600088010020810100208601002087010020D7
:101F700008B50820FFF7A0F8C0B21A4B1870322835
:101F800017D9194B1B781BB1184B1B7833B108BDFF
:101F900001220F210020FFF7F3F8F5E701220921C4
:101FA0000020FFF7EDF800220A211046FFF7E8F8BD
:101FB000EDE70F4B1B7873B10E4B1B78002BE6D16E
:101FC000002209211046FFF7DBF800220A21104603
:101FD000FFF7D6F8DBE700220F211046FFF7D0F815
:101FE000EAE700BF850100207D0100207A01002082
:101FF000800100208301002008B50520FFF75CF870
:10200000C0B2114B187032280ED9104B1B7803B197
:1020100008BD012205211046FFF7B2F80022062173
:102020000120FFF7ADF8F3E7094B1B78002BEFD148
:10203000002205210120FFF7A3F801220621104606
:10204000FFF79EF8E4E700BF85010020790100203A
:102050007F01002008B501210320FFF723FC104B6E
:102060001B785BB1012B0FD0022B13D0032B0AD1AD
:102070000C4B18700A4B00221A7004E00A4A1070C8
:102080000133074A137008BD084A10700133044A2F
:102090001370F8E7064A10700133014A1370F2E733
:1020A0007B010020880100208A010020840100209B
:1020B0007C01002000B587B0002211460120FFF707
:1020C0009DF900210846FFF76BF901210020FFF779
:1020D00067F902210020FFF763F908210320FFF7C9
:1020E0005FF905210320FFF75BF901220021084673
:1020F000FFF708F8012211460020FFF703F801223C
:1021000002210020FEF7FEFF06210020FEF7C5FF9A
:1021100007210020FEF7B2FF012209210020FEF76F
:10212000F1FF01220A210020FEF7ECFF01220E211F
:102130000020FEF7E7FF01220F210020FEF7E2FF5B
:10214000012209211046FEF7DDFF01220A21104677
:10215000FEF7D8FF012205211046FEF7D3FF01222A
:1021600006211046FEF7CEFF032204210020FEF7D1
:10217000C9FF032200210120FEF7C4FF032205212D
:102180000020FEF7BFFF02220B210020FEF7BAFF5E
:1021900002220C210020FEF7B5FF08220B210020AF
:1021A000FFF772F808220C210020FFF76DF80122DA
:1021B0000D211046FEF7A6FF01220E211046FEF764
:1021C000A1FF01220F211046FEF79CFF01220D21E5
:1021D0000220FEF797FF01220E210220FEF792FF58
:1021E00001220F210220FEF78DFF01220321002092
:1021F000FEF788FF012208210020FEF783FF01225D
:1022000011461046FEF77EFF012202211046FEF71E
:1022100079FF012207211046FEF774FF01220821F1
:102220001046FEF76FFF01220C211046FEF76AFFF1
:10223000FFF7F0F9FEF752FF4FF4E1330393202349
:10224000ADF81030214B05930024ADF80640ADF8F1
:102250000840ADF80A4006A90C2321F8143D0320DC
:10226000FFF706FA2346012202211948FFF7AEF9CB
:102270002346022203211748FFF7A8F92346032229
:1022800004211548FFF7A2F923460422052113482B
:10229000FFF79CF92346052206211148FFF796F91E
:1022A0002346062207210F48FFF790F9234607220D
:1022B00008210D48FFF78AF9C823082219460B4860
:1022C000FFF784F9FFF79CF9FEE700BF55200008EF
:1022D0000D1D0008711F0008F91F0008C91D000826
:1022E000C51A0008051C00086D1C0008751A0008B6
:1022F00070470000014B1868704700BF10000020B5
:10230000034613F8012B002AFBD1181A0138704735
:1023100030B5141E05469BB0184605DA8B232B609A
:102320004FF0FF301BB030BD4FF40273ADF80C30EE
:1023300014BF04F1FF332346029305934FF6FF7356
:1023400000910491ADF80E3002461E9B6946284666
:1023500000F072F8431CBCBF8B232B60002CE1D033
:10236000009B00221A70DDE707B5009313460A466A
:10237000014603480068FFF7CBFF03B05DF804FB9C
:10238000100000202DE9F0478E689E4282460C46E0
:102390009046994637D88A8912F4906F31D02568D3
:1023A00009696F1A6569022305EB450595FBF3F58D
:1023B00009F101033B449D4238BF1D46530530D50A
:1023C000294600F07FFB064650B90C23CAF80030BE
:1023D000A38943F04003A3814FF0FF30BDE8F087AD
:1023E0003A46216900F0FCFAA38923F4906343F094
:1023F0008003A381266165613E44ED1B2660A560D4
:102400004E464E4500D94E4632464146206800F0C1
:10241000F2FAA3689B1BA36023681E442660002079
:10242000DCE72A4600F0A8FB06460028E2D1216935
:10243000504600F0F9FAC8E72DE9F04F9DB080460C
:1024400003938B891D060C4616460FD50B696BB995
:10245000402100F037FB2060206128B90C23C8F828
:1024600000304FF0FF30C7E0402363610023099341
:1024700020238DF8293030238DF82A304FF0010BBE
:1024800037463D4615F8013B0BB1252B3ED1B7EB46
:10249000060A0BD05346324621464046FFF772FFEC
:1024A000013000F0A480099B534409933B78002B32
:1024B00000F09D8000234FF0FF32CDE90523049307
:1024C00007938DF853301A932F46052217F8011BF6
:1024D0004F4800F035FA049BD0B9D90644BF2022FA
:1024E0008DF853201A0744BF2B228DF853202A78E9
:1024F0002A2A15D0079A2F4600200A25394611F8B6
:10250000013B303B092B4DD9B8B10FE02F46B8E75E
:102510003F4A801A0BFA00F0184304903D46D3E777
:10252000039A111D12680391002A01DB079204E04F
:10253000524243F00203079204933B782E2B0CD1B6
:102540007B782A2B33D1039B1A1D1B680392002B27
:10255000B8BF4FF0FF33023705932E4D3978032271
:10256000284600F0EDF938B14023401B03FA00F093
:10257000049B034301370493397827488DF82810CA
:1025800006227E1C00F0DCF9002838D0234B13BB58
:10259000039B073323F0070308330393099B4B4442
:1025A00009936DE705FB023201200F46A6E70023E1
:1025B0000137059319460A25384610F8012B303AA1
:1025C000092A03D9002BC8D00591C6E705FB0121D4
:1025D00001230746F0E703AB00932246104B04A902
:1025E0004046AFF30080B0F1FF3F8146D6D1A389CA
:1025F0005B063FF536AF09981DB0BDE8F08F03AB21
:1026000000932246064B04A9404600F081F8EAE711
:10261000042E00080A2E00080E2E000800000000FC
:10262000852300082DE9F04791461F468A680B690B
:10263000DDF820809342B8BF1346C9F8003091F806
:10264000432006460C4612B10133C9F80030236816
:10265000990642BFD9F800300233C9F80030256826
:1026600015F0060507D104F1190AE368D9F800202E
:102670009B1AAB4228DC94F843302268003318BF21
:10268000012392062DD404F1430239463046C04757
:10269000013020D02368E568D9F8002003F0060354
:1026A000042B08BFAD1AA36822690CBF25EAE575A3
:1026B00000259342C4BF9B1AED184FF000091A344D
:1026C0004D451AD1002008E00123524639463046D4
:1026D000C047013003D14FF0FF30BDE8F08701352E
:1026E000C3E7E1185A1C302081F84300224494F8D3
:1026F000451082F843100233C5E7012322463946CC
:102700003046C0470130E6D009F10109D8E70000A2
:102710002DE9F04301F1430C0C46097E85B06E298A
:102720001746064698460C9A00F0B38022D86329D3
:1027300036D00AD8002900F0B980582900F08380EB
:1027400004F1420584F8421032E0642901D069297D
:10275000F6D120681368050603F104012AD51B6829
:102760001160002B03DA2D225B4284F843206F486E
:102770000A2239E0732900F09D8008D86F2920D003
:102780007029DDD1236843F02003236003E075291D
:1027900017D07829D4D1782384F84530644855E09F
:1027A0001368191D1B68116004F1420584F842305A
:1027B00001238CE01B68116010F0400F18BF1BB2A2
:1027C000CFE713682568181D1060280601D51B681F
:1027D00002E06806FBD51B8854486F2914BF0A2203
:1027E0000822002184F843106568A560002DC0F21E
:1027F0009580216821F004012160002B3DD1002D3E
:1028000040F08E806546082A0BD12368DB0708D587
:10281000236962689A42DEBF302305F8013C05F166
:10282000FF35ACEB05032361CDF800803B4603AADE
:1028300021463046FFF7F6FE01304DD14FF0FF3014
:1028400005B0BDE8F083394884F845101368216865
:102850001D1D1B6815600A060BD5CA0744BF41F051
:10286000200121601BB9226822F020022260102280
:10287000B7E74D0648BF9BB2EFE76546B3FBF2F101
:1028800002FB1133C35C05F8013D0B460029F5D16D
:10289000B9E7136825686169181D106028061B6870
:1028A00001D5196002E06A06FBD519800023236177
:1028B0006546B9E71368191D11601D68626800213B
:1028C000284600F03DF808B1401B60606368236152
:1028D000002384F84330A7E723692A463946304667
:1028E000C0470130AAD023689B0713D4E068039B3C
:1028F0009842B8BF1846A3E701234A4639463046F6
:10290000C04701309AD00135E368039A9B1AAB4265
:10291000F2DCEBE7002504F11909F5E7002BACD157
:10292000037884F8423004F142056CE7152E000864
:10293000262E00080000000000000000000000003B
:1029400001F0FF01102A2BDB10F0070F08D010F860
:10295000013B013A8B422DD010F0070F42B3F6D164
:10296000F0B441EA012141EA014122F007047FF07D
:1029700000070023F0E80256083C85EA010586EAD4
:10298000010685FA47F5A3FA87F586FA47F6A5FA10
:1029900087F68EB9EED1F0BC01F0FF0102F007021C
:1029A00032B110F8013B013A83EA010313B1F8D1C7
:1029B0000020704701387047002D06BF35460338A8
:1029C000073815F0010F07D1013015F4807F02BFE1
:1029D000013015F4C03F0130F0BC0138704700BF32
:1029E00010B5431E0A44914200D110BD11F8014BAD
:1029F00003F8014FF7E7884210B501EB020307D84F
:102A0000421E99420AD011F8014B02F8014FF8E733
:102A10008342F5D98118D21AD34200D110BD13F8E0
:102A2000014D01F8014DF7E738B50546002945D0BD
:102A300051F8043C0C1F002BB8BFE41800F0D2F88A
:102A40001F4A1368104633B9636014602846BDE816
:102A5000384000F0C8B8A3420CD9216862189342EC
:102A600004BF1A685B68636004BF52182260046088
:102A7000ECE713465A680AB1A242FAD91968581805
:102A8000A0420BD120680144581882421960DDD160
:102A9000106852685A6001441960D7E702D90C23C4
:102AA0002B60D3E7206821188A4204BF116852685E
:102AB000626004BF091821605C60C7E738BD00BFD1
:102AC0006001002070B5CD1C25F0030508350C2DE4
:102AD00038BF0C25002D064601DBA94203D90C2383
:102AE0003360002070BD00F07DF8214A1468214653
:102AF00091B9204C23681BB9304600F063F8206080
:102B00002946304600F05EF8431C24D10C23336084
:102B1000304600F068F8E4E70B685B1B18D40B2B19
:102B20000FD90B60CD50CC18304600F05CF804F1A2
:102B30000B00231D20F00700C31AD3D05A42E250E5
:102B4000D0E78C424B6816BF636013600C46EBE71E
:102B50000C464968CCE7C41C24F00304A04205D00D
:102B6000211A304600F02EF80130CFD02560DBE787
:102B70006001002064010020F8B5074614460E46A7
:102B800021B91146BDE8F840FFF79CBF22B9FFF715
:102B90004BFF25462846F8BD00F026F8A0420FD28C
:102BA00021463846FFF78EFF05460028F2D0314611
:102BB0002246FFF715FF31463846FFF735FFE9E7B4
:102BC0003546E7E738B5064C00230546084623603E
:102BD000FEF794F8431C02D1236803B12B6038BD83
:102BE0006C0100207047704751F8043C181F002BFF
:102BF000BCBF0B58C01870472E2E2F7379737465A5
:102C00006D2F7372632F73746D333266342D686168
:102C10006C2F73746D3332663478785F68616C5FE3
:102C2000636F727465782E6300000000000000007E
:102C30000102030401020304060708092E2E2F7364
:102C4000797374656D2F7372632F73746D3332668D
:102C5000342D68616C2F73746D3332663478785F0D
:102C600068616C5F7263632E6300000061626F7263
:102C70007428292C2065786974696E672E2E2E00C1
:102C80006173736572745F706172616D282920666B
:102C900061696C65643A2066696C6520222573223F
:102CA0002C206C696E652025640A000053746163F2
:102CB0006B206672616D653A0A0000002052302078
:102CC0003D2020253038580A0000000020523120D5
:102CD0003D2020253038580A0000000020523220C4
:102CE0003D2020253038580A0000000020523320B3
:102CF0003D2020253038580A000000002052313293
:102D0000203D20253038580A00000000204C522079
:102D10003D2020253038580A000000002050432074
:102D20003D2020253038580A000000002050535222
:102D3000203D20253038580A000000004653522F0D
:102D40004641523A0A0000002043465352203D209B
:102D500020253038580A00002048465352203D2094
:102D600020253038580A00002044465352203D2088
:102D700020253038580A00002041465352203D207B
:102D800020253038580A0000204D4D464152203D44
:102D900020253038580A00002042464152203D206C
:102DA00020253038580A00004D6973630A0000007E
:102DB000204C522F4558435F52455455524E3D20AA
:102DC000253038580A0000005B486172644661751E
:102DD0006C745D0A000000005B4275734661756C9F
:102DE000745D0A005B55736167654661756C745D5F
:102DF0000A000000000000000000000001020304BF
:102E000006070809232D302B2000686C4C006566EE
:102E1000674546470030313233343536373839412B
:102E20004243444546003031323334353637383941
:072E30006162636465660046
:102E38007856341280000020000000000024F400BE
:102E48001400002000000000000000000000000046
:102E5800000000000000000000000000000000006A
:102E6800000000000000000000000000000000005A
:102E7800000000000000000000000000000000004A
:102E8800000000000000000000000000000000003A
:102E9800000000000000000000000000000000002A
:082EA80000000000325476988E
:040000050800019559
:00000001FF
